{
  "contractName": "Rewards",
  "abi": [
    {
      "constant": true,
      "inputs": [],
      "name": "totalSupply",
      "outputs": [
        {
          "name": "",
          "type": "uint256"
        }
      ],
      "payable": false,
      "stateMutability": "view",
      "type": "function"
    },
    {
      "inputs": [],
      "payable": false,
      "stateMutability": "nonpayable",
      "type": "constructor"
    }
  ],
  "bytecode": "0x608060405234801561001057600080fd5b50631dcd6500600081905550609e8061002a6000396000f300608060405260043610603f576000357c0100000000000000000000000000000000000000000000000000000000900463ffffffff16806318160ddd146044575b600080fd5b348015604f57600080fd5b506056606c565b6040518082815260200191505060405180910390f35b600054815600a165627a7a7230582057ba1f9b102de888976c176283947fa698dded7b4b7aa04c0e745080389398cb0029",
  "source": "// SPDX-License-Identifier: MIT\npragma solidity ^0.4.2;\n\ncontract Rewards {\n    uint256 public totalSupply;\n\n    function Rewards() public {\n        totalSupply = 500000000;\n    }\n}",
  "sourcePath": "/home/radoslav/Documents/Projects/Rewards ICO/contracts/Rewards.sol",
  "compiler": {
    "name": "solc",
    "version": "0.4.26+commit.4563c3fc.Emscripten.clang"
  },
  "schemaVersion": "3.4.2",
  "updatedAt": "2021-08-09T13:39:06.480Z",
  "networkType": "ethereum",
  "devdoc": {
    "methods": {}
  },
  "userdoc": {
    "methods": {}
  }
}